{
  "contractName": "Shop",
  "abi": [
    {
      "constant": false,
      "inputs": [
        {
          "name": "name",
          "type": "string"
        },
        {
          "name": "login",
          "type": "string"
        },
        {
          "name": "password",
          "type": "string"
        }
      ],
      "name": "register",
      "outputs": [],
      "payable": false,
      "stateMutability": "nonpayable",
      "type": "function"
    },
    {
      "constant": true,
      "inputs": [
        {
          "name": "login",
          "type": "string"
        },
        {
          "name": "password",
          "type": "string"
        }
      ],
      "name": "auth",
      "outputs": [
        {
          "name": "",
          "type": "bool"
        }
      ],
      "payable": false,
      "stateMutability": "view",
      "type": "function"
    },
    {
      "constant": true,
      "inputs": [
        {
          "name": "login",
          "type": "string"
        }
      ],
      "name": "doesExist",
      "outputs": [
        {
          "name": "",
          "type": "bool"
        }
      ],
      "payable": false,
      "stateMutability": "view",
      "type": "function"
    }
  ],
  "bytecode": "0x608060405234801561001057600080fd5b506108d3806100206000396000f3fe608060405234801561001057600080fd5b50600436106100415760003560e01c806348eed213146100465780634cd08d03146101b057806394bbde2a14610399575b600080fd5b6101966004803603604081101561005c57600080fd5b810190808035906020019064010000000081111561007957600080fd5b82018360208201111561008b57600080fd5b803590602001918460018302840111640100000000831117156100ad57600080fd5b91908080601f016020809104026020016040519081016040528093929190818152602001838380828437600081840152601f19601f8201169050808301925050505050505091929192908035906020019064010000000081111561011057600080fd5b82018360208201111561012257600080fd5b8035906020019184600183028401116401000000008311171561014457600080fd5b91908080601f016020809104026020016040519081016040528093929190818152602001838380828437600081840152601f19601f82011690508083019250505050505050919291929050505061046c565b604051808215151515815260200191505060405180910390f35b610397600480360360608110156101c657600080fd5b81019080803590602001906401000000008111156101e357600080fd5b8201836020820111156101f557600080fd5b8035906020019184600183028401116401000000008311171561021757600080fd5b91908080601f016020809104026020016040519081016040528093929190818152602001838380828437600081840152601f19601f8201169050808301925050505050505091929192908035906020019064010000000081111561027a57600080fd5b82018360208201111561028c57600080fd5b803590602001918460018302840111640100000000831117156102ae57600080fd5b91908080601f016020809104026020016040519081016040528093929190818152602001838380828437600081840152601f19601f8201169050808301925050505050505091929192908035906020019064010000000081111561031157600080fd5b82018360208201111561032357600080fd5b8035906020019184600183028401116401000000008311171561034557600080fd5b91908080601f016020809104026020016040519081016040528093929190818152602001838380828437600081840152601f19601f82011690508083019250505050505050919291929050505061057e565b005b610452600480360360208110156103af57600080fd5b81019080803590602001906401000000008111156103cc57600080fd5b8201836020820111156103de57600080fd5b8035906020019184600183028401116401000000008311171561040057600080fd5b91908080601f016020809104026020016040519081016040528093929190818152602001838380828437600081840152601f19601f820116905080830192505050505050509192919290505050610756565b604051808215151515815260200191505060405180910390f35b6000816040516020018080602001828103825283818151815260200191508051906020019080838360005b838110156104b2578082015181840152602081019050610497565b50505050905090810190601f1680156104df5780820380516001836020036101000a031916815260200191505b5092505050604051602081830303815290604052805190602001206000846040518082805190602001908083835b60208310610530578051825260208201915060208101905060208303925061050d565b6001836020036101000a03801982511681845116808217855250505050505090500191505090815260200160405180910390205414156105735760019050610578565b600090505b92915050565b6105866107de565b838160000181905250828160200181905250816040516020018080602001828103825283818151815260200191508051906020019080838360005b838110156105dc5780820151818401526020810190506105c1565b50505050905090810190601f1680156106095780820380516001836020036101000a031916815260200191505b50925050506040516020818303038152906040528051906020012081604001818152505080604001516000846040518082805190602001908083835b602083106106685780518252602082019150602081019050602083039250610645565b6001836020036101000a038019825116818451168082178552505050505050905001915050908152602001604051809103902081905550806001846040518082805190602001908083835b602083106106d657805182526020820191506020810190506020830392506106b3565b6001836020036101000a03801982511681845116808217855250505050505090500191505090815260200160405180910390206000820151816000019080519060200190610725929190610802565b506020820151816001019080519060200190610742929190610802565b506040820151816002015590505050505050565b60008060001b6000836040518082805190602001908083835b60208310610792578051825260208201915060208101905060208303925061076f565b6001836020036101000a038019825116818451168082178552505050505050905001915050908152602001604051809103902054146107d457600190506107d9565b600090505b919050565b60405180606001604052806060815260200160608152602001600080191681525090565b828054600181600116156101000203166002900490600052602060002090601f016020900481019282601f1061084357805160ff1916838001178555610871565b82800160010185558215610871579182015b82811115610870578251825591602001919060010190610855565b5b50905061087e9190610882565b5090565b6108a491905b808211156108a0576000816000905550600101610888565b5090565b9056fea165627a7a72305820811df1d1671d1e96e339b478f53730a201e8c67d4fda2dd656cea2032d03922c0029",
  "source": "pragma solidity 0.5.8;\r\n\r\ncontract Shop\r\n{\r\n    mapping(string => bytes32) logpass;\r\n    mapping(string => User) users;\r\n    struct User\r\n    {\r\n        string name;\r\n        string login;\r\n        bytes32 password;\r\n    }\r\n    function register(string memory name, string memory login, string memory password) public{\r\n        User memory u;\r\n        u.name = name;\r\n        u.login = login;\r\n        u.password = keccak256(abi.encode(password));\r\n        logpass[login] = u.password;\r\n        users[login] = u;\r\n    }\r\n    function auth(string memory login, string memory password) public view returns(bool)\r\n    {\r\n        if(logpass[login] == keccak256(abi.encode(password))) return true;\r\n        return false;\r\n    }\r\n    function doesExist(string memory login) public view returns(bool)\r\n    {\r\n        if(logpass[login] != 0) return true;\r\n        return false;\r\n    }\r\n\r\n}",
  "sourcePath": "C:/xampp/htdocs/back/contracts/back.sol",
  "compiler": {
    "name": "solc",
    "version": "0.5.8+commit.23d335f2.Emscripten.clang"
  },
  "schemaVersion": "3.0.16",
  "updatedAt": "2019-10-17T08:44:20.572Z",
  "devdoc": {
    "methods": {}
  },
  "userdoc": {
    "methods": {}
  }
}